:0400000061EF17F0A5
:102EAD00010001000100010F0EC16E000E816E00C8
:102EBD000E936E1200AD0EF66E2E0EF76E000EF81E
:102ECD006E00EE01F010EE07F00900F5CFEEFFE514
:102EDD0050E150FAE1000174EF17F05AEC17F003CE
:102EED00500410D8B403D0CAEC17F002D096EC17EA
:102EFD00F0A00E0A6E860E0B6E010E0C6E000E0DFE
:102F0D006E0A06000E0B5A0C5A0D5A0A28F9E10BDF
:102F1D0028F7E10C28F5E10D28D8B4E1D7F1D70158
:102F2D00500210D8B415D005500710056E06500686
:102F3D006ED8900730076E05C081FF05280610D8A2
:102F4D00A41200000E026E000E016E800E076E12AE
:102F5D000006340630086E0530056E08C006F00513
:102F6D00C081FFD8900730076E05500610D8A41207
:102F7D0000000E046E010E036E000E026E010E01B6
:102F8D006E010E076E120001500210D8B415D00557
:102F9D00500710056E0650066E07500724076E0584
:102FAD00C081FF05280610D8A41200000E026E0085
:102FBD000E016E010E076E1200D8900534056E06D7
:102FCD0034066E05C081FF07500724076E055006B5
:102FDD0010D8A41200000E046E000E036E000E0237
:102FED006E010E016E000E066E000E056E800E0750
:032FFD006E120051
:020000040030CA
:08000000FF01191EFF8081FFC2
:00000001FF
